:020000040000FA
:04000000803108281B
:100008007E1480317E10090080310A28A0308400D7
:10001800003085002330FE000030FF009731C827EC
:100028008031B0308400013085004030FE0000305F
:10003800FF009731C82780312030840002308500C6
:100048004830FE000030FF009731C8278031A030CB
:100058008400023085004030FE000030FF009731F8
:10006800C82780317E10200088317A28200052036A
:10007800031D3F284028562850081F39003A031D01
:100088004628472856282100A81703302000510683
:10009800031D4F28502854282300D901D90A56286F
:1000A8002300D90120005208031D5B285C288F29F2
:1000B80050081F39023A031D622863288F29540803
:1000C8000F39003A031969286A288F2954080F390B
:1000D800E800033068020318722873288F2920303B
:1000E80021004006031D79287A288F29A8172000A7
:1000F800D41B7F288028962854080F390907B73E53
:10010800860001308700403FED00413FEE00540873
:100118000F39C53E8600013087000108E8006808ED
:10012800EC00AA2854080F390907A03E8600870169
:10013800403FED00413FEE0054080F39C83E8600AD
:10014800013087000108E8006808EC006C18AD2849
:10015800AE28B928FB30E800FF30E9006D086805D3
:10016800ED006E086905EE00BF2804306D04ED004F
:1001780000306E04EE00D41BC228C328CF285408D0
:100188000F390907B73E8600013087006D08C03F68
:100198006E08C13FD92854080F390907A03E8600C8
:1001A80087016D08C03F6E08C13F03305106031D2B
:1001B800DE28DF2805296D0886006E088700811F64
:1001C800E628E728FA28D41BEA28EB28F32854085D
:1001D8000F39C53E8600013087008114FA2854087B
:1001E8000F39C83E86000130870081146D088600EB
:1001F8006E08870001156D0886006E088700811754
:100208008F2904306D06ED0000306E06EE006D0893
:1002180086006E088700811F1229132930297F3034
:10022800E8006D0886006E088700680881056D087B
:1002380086006E08870001170530E2000030E300F1
:100248006E08E5006D08E4000230E6000030E700C3
:1002580089319B21803135296D0886006E08870019
:100268000117043020006D06ED0000306E06EE0028
:10027800EC183F29402948296D0886006E08870038
:10028800811F472948297329D41B4B294C295429F4
:1002980054080F39C53E86000130870081105B295C
:1002A80054080F39C83E86000130870081103B3062
:1002B800E8006D0886006E0887006808810505302B
:1002C800E2000030E3006E08E5006D08E40002304B
:1002D800E6000030E70089319B2180317B293B30E3
:1002E800E8006D0886006E08870068088105200010
:1002F80054080F39983EE800E9010E30E93D6808D6
:10030800EA006908EB00FE30E8006A0886006B081E
:10031800870068088105080021004008031D952909
:100328009629A8293D008E019201163091009F3030
:1003380097007B309200A1298E158E1DA429A5292E
:10034800A0292100C001C00A4003031DAC29AD2922
:10035800BB293D008E1AB129B229BB29900192010F
:100368001214121602302100C7004708C0003D00D1
:10037800101DBF29C029CD29121DC329C429CD2983
:10038800FB302100C70047083D00900588319720C1
:1003980081313D008E1CD129D229D5292000121186
:1003A800BF2A101CD829D929EA29121CDC29DD29E1
:1003B800EA2985312225813104302100C700470808
:1003C800C000FE30C70047083D009005101EED290B
:1003D800EE29F529121EF129F229F52988315D2027
:1003E80081313D00101FF929FA29272A121FFD29FA
:1003F800FE290E2A73302000E2000030E3000030AE
:10040800E4000030E5000130E6000030E700893103
:100418009B218131BF302100C70047083D0090056E
:100428008831412081312100350803191C2A1D2AF1
:100438001F2A0130B5023508031D232A242A272A3A
:1004480087318A2781313D00901E2B2A2C2A332A96
:10045800921E2F2A302A332A8831DE2081313D002E
:10046800901C372A382A4E2A921C3B2A3C2A4E2AAC
:10047800FF302000E2007F30E3000030E40000306D
:10048800E5000130E6000030E70089319B21813129
:100498003D0093010430210040020318542A552AD4
:1004A800582A20001211BF2A3D00921D5C2A5D2A9D
:1004B800BD2A2100C9013D00901D632A642ABD2A76
:1004C8000F082100C7004708C100410CC700C70C2E
:1004D800470C0F39C8004808B600F730C70047086E
:1004E8003D009005210041197A2A7B2A8B2A36087B
:1004F800C53E86000130870001080139C700013078
:10050800C70601084706FE39470681009A2A3608B9
:10051800C83E86000130870001080139C700013054
:10052800C70601084706FE39470681003608031D3D
:100538009E2A9F2AA32A8A31DB228131B22A72306D
:100548002000E2000030E300C130E4000030E500A4
:100558000030E600E70089319B218131013021001C
:10056800C7004708C90704304902031CBC2ABD2A32
:100578005F2A20001211080021003A08860087012E
:10058800413F2000E7006708E400E5016508230013
:100598003402031DD32A2000640823003302031801
:1005A800D62AD72ADC2A33082000E4006408E700AA
:1005B80020006708E400E50164082300B302200076
:1005C80065082300B43B2000E601022B6608583E6C
:1005D800860087010108E400230030088600013006
:1005E80087002000640881000130E40064082300CB
:1005F800B00701302000E4006408E60767086602D7
:10060800031C072B082BEA2A230033083404031998
:100618000E2B0F2B4E2B21002D08013E2000E4004D
:10062800003021002E3D2000E500640886006508A2
:100638008700083081005830E4000030E5002100D0
:100648002D0886002E088700423120006408C03F2C
:100658006508C13F21003A0886008701011B352B38
:10066800362B422B2D0886002E0887004830810043
:100678002D0886002E0887008117952B2D088600E7
:100688002E088700083081002D0886002E08870074
:100698008117952B21002D08013E2000E400003031
:1006A80021002E3D2000E5006408860065088700CB
:1006B800083081005030E4000030E50021002D08AA
:1006C80086002E088700423120006408C03F650874
:1006D800C13F21002D0886002E08870004308100C4
:1006E8002D0886002E088700811723003508360458
:1006F80003197F2B802B8A2B0530B03E86000130F2
:100708008700413F8A00403F0A0083312300B2132B
:1007180021003408031D912B922B952B87318A27B2
:10072800823108007108FD007008FC007408750427
:10073800031D9F2BA02BA12B5F2C7C0886007D0816
:1007480087007208810074087C07F60075087D3DF3
:10075800F7007608FF3EF800FF30773DF90078088B
:10076800860079088700720881000030750203301E
:10077800031974020318C12BC22BC32B5F2C7C08EE
:10078800013EF60000307D3DF700760886007708C8
:100798008700720881007C08023EF60000307D3D2B
:1007A800F7007608860077088700720881007408C9
:1007B8007C07F60075087D3DF7007608FE3EF800D8
:1007C800FF30773DF90078088600790887007208BD
:1007D800810074087C07F60075087D3DF7007608EF
:1007E800FD3EF800FF30773DF9007808860079086B
:1007F80087007208810000307502073003197402FF
:100808000318072C082C092C5F2C7C08033EF600E3
:1008180000307D3DF700760886007708870072086B
:10082800810074087C07F60075087D3DF70076089E
:10083800FC3EF800FF30773DF9007808860079081B
:1008480087007208810000307502093003197402AC
:1008580003182F2C302C312C5F2C7C09F6007D09D5
:10086800F700F60A0319F70A03307605FA00003094
:100878007705FB007A08FC077B08FD3D7A08F4023F
:100888007B08F53BFC30F405FF30F505592C7C0856
:1008980086007D088700720881000130F40200306C
:1008A800F53B0130FC070030FD3D74087504031D5D
:1008B8005E2C5F2C4B2C080023004B084C040319BA
:1008C800662C672C702C4B0886004C088700811F0B
:1008D8006E2C6F2C702C212D033021003F06031D38
:1008E800762C772C782CBF013F08031D7C2C7D2C9F
:1008F8007E2C212D02303F06031D832C842C9A2C3C
:10090800F001F00A0030F1000030F200F30102308B
:100918008E31EF26843171082300CC007008CB009B
:100928000330FB007B082100BF00212D3F03031D7E
:100938009E2C9F2C212D41302F02031CA42CA52C6A
:10094800AA2C4030FB007B08FD00AE2C2F08FB00D2
:100958007B08FD007D082F02FB007B08AF002030DC
:100968002300CE008030CD007D08FB007B08FC0012
:100978005408031DC02CC12CF42CD82C4F08860019
:10098800500887000108FB004D0886004E088700C4
:100998007B0881000130CD070030CE3D0130CF0704
:1009A8000030D03D0130FC027C08031DDC2CDD2C1E
:1009B800C22CF92C4F088600500887000108FB005C
:1009C8004D0886004E0887007B0881000130CD075E
:1009D8000030CE3D0130CF070030D03D0130FC0261
:1009E8007C08031DF82CF92CDE2C21002F08031D90
:1009F800FE2CFF2C0E2D40307D06031D042D052DE9
:100A08000A2D0230FB007B08BF000E2D0330FB00CF
:100A18007B08BF00F001F00A8030F1002030F200BE
:100A28007D08FB007B08F30002308E31EF2684310D
:100A380071082300CC007008CB00080021001211B7
:100A48003D009301900198010E30F2009930F100B9
:100A5800F301710886007208870081010130F107EF
:100A68000030F23D0130F0007008F30702307302E5
:100A7800031C3F2D402D2D2D16303D0091009F3039
:100A880097007B309200F4017408F0000130F035D3
:100A9800FF3E031D4B2D7035203E86008701003038
:100AA800C03F0030C13FC23FC33F0130F000700873
:100AB800F4070C307402031C622D632D482D3D0091
:100AC8000E1796010E120E13F730F00070089005FD
:100AD8002100A8012300B201B301B4013D0090191F
:100AE800762D772D682D0130F00070082100B300B5
:100AF8000130F0007008B200B1012300D601D8011E
:100B0800F4017435A03E860087010030C03FC13F24
:100B18007435B73E8600013087000030C03FC13FC2
:100B28007408C83E86000130870081017408C53EFC
:100B380086000130870081010130F0007008F40759
:100B480003307402031CA92DAA2D852D28302100FD
:100B5800A0000030A10016303D00980000302000B1
:100B6800A3005030A2000830A1000430F000700843
:100B7800A000A0172100C20100302300C4000030EB
:100B8800C3000030C2000030C100D5012100C001FF
:100B980008003D000E122100A81BD32DD42D1C2EB9
:100BA8002300B21FD82DD92DEB2D0230F500750882
:100BB8002100B80023005608031DE32DE42DE72D7E
:100BC8008C31382485312100B201B301692E21000E
:100BD8002D08013EF50000302E3DF6007508860010
:100BE80076088700083081005030F5000030F600A4
:100BF8002D0886002E08870042317508C03F760808
:100C0800C13F2D0886002E0887000C3081002D0872
:100C180086002E0887008117200886002108870093
:100C28000430810020088600210887008117692E7A
:100C38002000D01F202E212E382E2100B801B80AFE
:100C48003108031D282E292E2C2E8C31382485316D
:100C58002100B201B3013408031D332E342E692E4E
:100C680087318A278531692E0230F5007508210001
:100C7800B8002D08013EF50000302E3DF60075083D
:100C8800860076088700083081005030F500003073
:100C9800F6002D0886002E08870042317508C03FEF
:100CA8007608C13F2D0886002E0887000430810091
:100CB8002D0886002E0887008117B201B301340879
:100CC800031D672E682E692E342E08002100200887
:100CD8008600210887000030011B01302000E60053
:100CE800043021002006A00000302106A1000830B1
:100CF8004006031D802E812E982E200052087F3931
:100D08003D009600160803198A2E8B2E922E10305D
:100D18002000E40064082100C000982E0430200060
:100D2800E40064082100C0003803031D9C2E9D2E9A
:100D3800E32E58302000E4000030E50021002008B0
:100D4800860021088700423120006408C03F6508FA
:100D5800C13F8D3100258631023021003906031D3F
:100D6800B62EB72EC32E200886002108870004302F
:100D7800810020088600210887008117FC2E2000AA
:100D88006608031DC82EC92ED62E2100200886000D
:100D98002108870048308100200886002108870044
:100DA8008117FC2E210020088600210887000830C2
:100DB800810020088600210887008117FC2E230067
:100DC800B21FE72EE82EFA2E350836040319ED2E49
:100DD800EE2EF82E0530B03E860001308700413FE8
:100DE8008A00403F0A0086312300B2132100B8016F
:100DF80008002100A8170E302000EA009930E90009
:100E0800EB01690886006A08870081010130E9075B
:100E18000030EA3D0130E8006808EB0702306B0259
:100E2800031C172F182F052F2030F0000030F10079
:100E38000030F200F3003030F4000030F500833168
:100E4800962386313D000E172000EC016C08C83E41
:100E580086000130870081016C08C53E860001309C
:100E6800870081010130E8006808EC0703306C0254
:100E7800031C3F2F402F2A2FEE30F0000130F100E5
:100E88000030F200F3000230F4000030F500833146
:100E9800962386313D000E1328302100A000003033
:100EA800A10020302000E80068082100BA003A08B4
:100EB800AD00FF39031D0030AE0020005208E800E5
:100EC80068082100C2004208031D6B2F6C2F732F86
:100ED80010302000E80068082100C000892F013088
:100EE8002000E2000030E300C230E4000030E500FA
:100EF8000130E6000030E70089319B21863120303F
:100F08002000E80068082100C0000800210033081C
:100F1800031D8F2F902FFF2F0130F0007008B300B2
:100F28003208031D982F992FFF2F0130F000700809
:100F3800B20002303806031DA22FA32FB52F2008B8
:100F48008600210887004131810120088600210898
:100F58008700483081002008860021088700811713
:100F6800FF2F3803031DB92FBA2FFF2F2300D701F6
:100F78000830F00021003A0A8600870170088100D5
:100F88005030F0000030F1003A08023E8600870138
:100F98007008C03F7108C13F0430F0003A0886006D
:100FA8008701700881003A088600870181172300AD
:100FB800D701D70A21002D08013EF00000302E3D50
:100FC800F1007008860071088700083081005030F1
:100FD800F0000030F1002D0886002E08870042310D
:100FE8007008C03F7108C13F2D0886002E08870091
:080FF80080308100FF2F08008A
:1010020022008C018E01383021008C002F308E009E
:1010120023008E018C0124008C01210095172200EF
:101022009D01080023001F129F159F101F149D177A
:101032001D139D121D169D119E131E139E161E1228
:101042009E111E151E10E1309B0004309C0008000A
:10105200F20021003F08031D2F2830284028720883
:101062002300CF000230D0007008F1007108210087
:10107200AF002300D401D40A2100BF01BF0A080037
:1010820001302300C1070030C23D0030C33D0030B3
:10109200C43D5808031D4E284F285C280130F0003B
:1010A2007008D5075508031D572858285C28FF30BB
:1010B200F0007008D50008003D001215EF30200046
:1010C200E80068083D0090058E142300D801D80A74
:1010D200D50175302000E2000030E3000030E4006A
:1010E2000030E5000030E600E70089319B218831BD
:1010F20008009731D4278831853122258831813102
:1011020090218831203021004002031889288A2842
:101112008B2880283D008E1C8F28902891288028BB
:101122008F31762788318028803108282300D80122
:1011320074302000E2000030E3000030E4000030B0
:10114200E5000030E600E70089319B2188313D004F
:101152008E101211B228FB302000E80068083D0012
:1011620090051019B528B628AC282300D50108002F
:10117200FC00771DBD28BE28C328F0017C088A31F7
:101182004B228831F71CC628C728CD28F001F00A67
:101192007C088A314B2288317C08983EF800F9019C
:1011A2000E30F93D7808FA007908FB007A088600CB
:1011B2007B0887007708810008003D00181CE228A0
:1011C200E328042921003A088600870180300106BD
:1011D200031DEC28ED28022920088600210887003B
:1011E20084300106031DF628F72802290C30F0008E
:1011F2003A0886008701700881003A088600870154
:1012020081173D001810DF30F000700890050800CB
:10121200F8007108F6007008F5007808F400740808
:10122200F9002A2975088600760887000108F4006B
:101232007408F7000130F5070030F63D7708F40036
:10124200790886008701740881000130F40074086F
:10125200F9070130F2020030F33B720A031D35290F
:10126200730A031D35293629132908008931D12132
:1012720089312300EB0108302000E00060082300E0
:10128200ED00EC010030EA000030E9004B30E800EC
:101292000030E7008831132089312000E101610824
:1012A200203E86000230870081010130E0006008A4
:1012B200E10740306102031C5F29602950292100A7
:1012C200BE01BD012300DA01080023006008EA0024
:1012D2005F08E9005E08E8005D08E7006A08F300BD
:1012E2006908F2006808F1006708F0000030F700B2
:1012F200B730F6001B30F5000030F4008B31DE23EE
:1013020089317008FF3E2000E100FF30713DE200AC
:101312006130E0006008E30063088600870101088D
:1013220023009B002000630886008701413F2300C1
:101332009C000800A8298A318E228931D02989315E
:1013420037218931D0298D3175258931D029200065
:101352006308003A0319B1297F3A0319CB29D0292E
:101362006208013A0319A029033A0319D029013A64
:101372000319A429063A0319D029773A0319D02967
:10138200013A03199C29073A03199C29013A0319C6
:101392009C29D0296208FF3A0319D029D0290800D4
:1013A20000302300EA000030E9004B30E800003052
:1013B200E700EB01EC010830FD007D08ED002100A3
:1013C200B0011A30FD007D08F70001308831B920E4
:1013D20089311E30FD007D08F70002308831B920C6
:1013E2008931F001C030F1002030F2004030FD00C0
:1013F2007D08F30002308E31EF2689317108210019
:10140200AC007008AB002300CB01CC0121008E118F
:10141200BF010800023021003806031D112A122ADA
:10142200162A8231C0228A314A2AB801230057087B
:10143200031D1C2A1D2A492A21002D08013E2000D5
:10144200E800003021002E3D2000E90068088600F7
:1014520069088700083081005030E8000030E90058
:1014620021002D0886002E088700423120006808DE
:10147200C03F6908C13F21002D0886002E08870061
:101482000C3081002D0886002E08870081174A2A19
:10149200D7010800F5002030F1007108F60070084D
:1014A200F1000130F135890B532A7508F200013041
:1014B200F235FF3E031D592A72357107F3000130E0
:1014C200F335FF3E031D612A7335F4007408F607F5
:1014D20076088600870181137008031D712A722A1B
:1014E2007C2A7535B73E8600013087007608C03FFA
:1014F2000030C13F842A7535A03E860087017608F8
:10150200C03F0030C13F760886008701011376088C
:10151200043E86008701011708003D008E1C922AB6
:10152200932AC72A21008E140E14DA2A00302300CF
:101532005202323003195102031CA02AA12AD52AD1
:10154200D101D20121000E18A72AA82AAC2A0E1412
:101552002300DC01B42A23005C080319B12AB22A51
:10156200B42A21000E1021008E18B82AB92ABD2AE9
:101572008E142300DB01D52A23005B080319C22A3B
:10158200C32AC62A21008E10D52AD52A2100400856
:10159200F000F1017108003A0319D02AD52A700827
:1015A200203A0319972AD52A01302300D1070030A7
:1015B200D23D08002D302100C5004508B500410884
:1015C200FD39031DE52AE62A222B41363F39C500A3
:1015D2000130C535FF3E031DEA2A4535203EC600CF
:1015E2004608BA003A08AD00FF39031D0030AE00CC
:1015F20004302D06AD0000302E06AE003A088600FB
:101602008701010C890C0F390D3A031D092B0A2B96
:101612001E2B3A08023E86008701403FF000413F00
:10162200F1000830F2000030F30050308931092116
:101632008A318B312F238A312E2B8A310B228A3128
:101642002E2BFD304105C50004304506031D2A2B13
:101652002B2B2E2B86316A268A3108002100B901F4
:10166200B401B1012300D601D7012100B8017F30B6
:101672002000EF00210020088600210887002000BA
:101682006F088105043021002006A00000302106E9
:10169200A1007F302000EF002100200886002108F1
:1016A200870020006F088105043021002006A00079
:1016B20000302106A1007F302000EF0021002D081C
:1016C20086002E08870020006F0881052100A801EE
:1016D200A901AA012300B201B301B4018D31ED25A4
:1016E2008B3103302000E2000030E3000030E400E0
:1016F2000030E5000030E600E70089319B218B31A4
:101702008531CD258B3108002000E0002100B00199
:101712002B082C0403198E2B8F2B972B2B0886005A
:101722002C088700811B962B972BDC2B2B0886001D
:101732002C08870041317B0801020318A12BA22B40
:10174200AB2B2B0886002C08870041310108FC00D6
:101752007C08FB00B001C42B3008C03E8600870124
:101762002030873D0108FC00300820006007FD00A2
:101772007D088600023087007C0881000130FC0071
:101782007C082100B0077B083002031CC92BCA2B3E
:10179200AD2BF001C030F1002030F2004030FC00EF
:1017A2007C08F30002308E31EF268B317108210064
:1017B200AC007008AB00300808000030FC000030BC
:1017C200FB000030FA000030F90073087204710463
:1017D20070040319ED2BEE2B2F2CFD01FD0AFC2BBF
:1017E2000130F035F10DF20DF30D890BF22B0130C2
:1017F200F8007808FD07F31FFF2B002CF12B0130B6
:10180200F935FA0DFB0DFC0D890B012C73087702DB
:10181200031D152C72087602031D152C7108750222
:10182200031D152C70087402031C182C192C222C71
:101832007008F4027108F53B7208F63B7308F73B37
:1018420079140130F336F20CF10CF00C890B232CD5
:101852000130FD02031D2E2C2F2C002C7C08F300DE
:101862007B08F2007A08F1007908F00008002100F4
:10187200B1012300D601023021003806031D422C9B
:10188200432C682C2D08013EF30000302E3DF4005D
:101892007308860074088700083081005830F3000E
:1018A2000030F4002D0886002E08870042317308AC
:1018B200C03F7408C13F2D0886002E0887004830BB
:1018C20081002D0886002E0887008117982C2A088F
:1018D20020005702031D712C210029082000560206
:1018E2000318742C752C7C2C57082100AA002000A8
:1018F20056082100A9008D3100258C315830F300A3
:101902000030F400210020088600210887004231BF
:101912007308C03F7408C13F200886002108870071
:1019220048308100200886002108870081170800BE
:101932002000D801D901DD2C2100A817230059036A
:10194200031DA42CA52CF12C2000D814F12C21006D
:10195200A817F12C2100A8172000D41BB12CB22CFF
:10196200BE2C54080F390907B73E860001308700A4
:10197200403FF200413FF300C82C54080F390907D9
:10198200A03E86008701403FF200413FF30072080B
:10199200860073088700811FCF2CD02CF12C72088F
:1019A200860073088700011DD72CD82CF12C01303A
:1019B200F0007008D800F12C50081F39F000F10136
:1019C2007108003A0319E62CF12C7008003A031949
:1019D2009D2C013A0319A82C033A0319AB2CF12CC4
:1019E2002100A81FF52CF62CFF2C5830A600003041
:1019F200A70028140230F0007008A900080008307F
:101A0200F0007008F200003021002A0208300319A9
:101A1200290203180D2D0E2D232D2908F000700820
:101A2200F2003908031D162D172D1A2DB901B90A16
:101A3200232D3903031D1E2D1F2D232D0230F000EF
:101A42007008B9007208F000F1017008A90271086B
:101A5200AA3B2008013EF0000030213DF100700851
:101A6200860071088700720881005830F000700803
:101A7200B70028183D2D3E2D6F2D542D26088400C9
:101A8200270885000008F0003708860087017008E3
:101A920081000130A6070030A73D0130F000700838
:101AA200B7070130F2027208031D582D592D3F2D40
:101AB200742D26088400270885000008F0003708E6
:101AC20086008701700881000130A6070030A73D1B
:101AD2000130F0007008B7070130F2027208031DEE
:101AE200732D742D5A2D0800200050081F39013A19
:101AF20003197C2D7D2D7E2DEC2D500E890C033982
:101B0200013A0319852D862D872DEC2D54080319D2
:101B12008B2D8C2DD32D54030319902D912DD32D64
:101B2200EC2D60302100A6000230A7000830A90089
:101B32000030AA0028142100A817EC2D60302100E3
:101B4200A6000230A7009C2D57082300B4002000F5
:101B520056082300B300DD30F0007008B000663094
:101B6200B5000930B600B217EC2DE7302100A6000F
:101B72000130A7000730A9000030AA00C130F000F0
:101B82007008A800EC2D5208F00070082300D30062
:101B9200531CCC2DCD2DD02D22008E159C2D220034
:101BA2008E119C2D5108F000F1017108003A0319C1
:101BB200DB2DEC2D7008003A0319922D013A03191E
:101BC2009F2D213A0319A52D013A0319B62D033A87
:101BD2000319C42DEC2D08002000500E890C033986
:101BE200003A0319F52DF62D3D2E692EA81708305F
:101BF200C3004308C000692E8E316A268D31692EDA
:101C02008631FD268D31692EC230A6000030A70034
:101C12002814A901A90AA817692E8C3199248D319B
:101C2200692E80313A208D31692E20005408EE3E13
:101C32002100A6000130A700092EA8172000520893
:101C42002100C30020005408EE3E860001308700C8
:101C5200210043088100692E02302000E20000309A
:101C6200E3000030E4000030E5000030E600E70069
:101C720089319B218D31692E51082100C300C40195
:101C82004408003A0319462E692E4308003A031904
:101C92000E2E013A0319122E023A0319122E063A97
:101CA2000319F72D033A0319FD2D013A03192D2EBD
:101CB2000F3A0319052E013A0319012E033A0319AB
:101CC200162E013A03191E2E073A0319692E692EA0
:101CD2000800803020005006031D702E712EEE2E5B
:101CE200C030F00070082100A800DA2EA1302100D7
:101CF200A6009030A7001230A9000030AA00EE2EF4
:101D02005208031D852E862EB52E5208F000F101D1
:101D1200F035F10D0A30700784009830713D85006E
:101D2200003F2100A600013FA7002708F100260876
:101D3200F00002307007840071080318710A8500F0
:101D42000008F2007208A9002708F1002608F00036
:101D520003307007840071080318710A85000008B7
:101D6200F2007208AA00EE2E2100A801EE2E033026
:101D720052020318BD2EBE2EB52E5208F000F101FC
:101D8200F035F10D0030700784009830713D850008
:101D9200003F2100A600013FA70026088400270873
:101DA20085000008F000F1017008A9007108AA007E
:101DB200EE2E20005308F000F1017108003A0319D9
:101DC200E32EB52E7008013A0319772E033A031950
:101DD200812E013A0319B82EB52E0800F8007008BA
:101DE2000319F42EF52EFE2E7835A03E86008701CB
:101DF200403FF900413FFA00072F7835B73E860091
:101E020001308700403FF900413FFA0079087A0427
:101E1200031D0C2F0D2F102FF001F101752FFF3034
:101E22007105F4007F307205F500790886007A08A2
:101E3200870042317408C03F7508C13F7908013EEE
:101E4200F40000307A3DF5007408860075088700BA
:101E5200730881004030F400790886007A08870010
:101E620074088105790886007A0887008115790847
:101E720086007A088700811770080319412F422FC4
:101E8200592F7835A03E86008701403FF400413F3C
:101E9200F50004307406F60000307506F700783558
:101EA200A03E860087017608C03F7708C13F712FA8
:101EB2007835B73E860001308700403FF400413F4D
:101EC200F50004307406F60000307506F700783528
:101ED200B73E8600013087007608C03F7708C13FD1
:101EE2007A08F1007908F000080020302100400251
:101EF20003187C2F7D2F7E2FFF2F3D008E1C822FFB
:101F0200832F842FFF2F21003B08031D892F8A2F47
:101F1200A02F40302000E1006108FB00A0308B318F
:101F220085238F312000E20062082100BD003D08B8
:101F320003199C2F9D2FA02FBB01BB0ABC013B089C
:101F42000319A42FA52FC12F23009E1CA92FAA2F4E
:101F5200C12F21003C08A03E860002308700010804
:101F62009731BC278F3101302000E1006108210048
:101F7200BC073C083D06031DBF2FC02FC12FBB016C
:101F82002000911EC52FC62FE62F3F3021003E02B2
:101F92000318CC2FCD2FE62F9731F0278F31200059
:101FA200E10021003E08203E86000230870020002A
:101FB200610881000130E10061082100BE073E088E
:101FC200203E860002308700810121003F08031D68
:101FD200EB2FEC2FFC2F3E080319F02FF12FFC2FD3
:101FE2003E082000E1006108F000203088312920FD
:101FF2008F312100BE01843160248F310800093401
:10200200023443340034023401340034C0343234F4
:10201200093404340034003401340234023401340B
:1020220000340534243400341034013404342434AC
:1020320002340234053424340634003401340534C5
:102042002434013400340134073405348134033438
:102052000A340034023409340434013400340234C2
:102062000A340034003400340734053402340234B4
:1020720040340034003407340534823402344034AE
:1020820000340034343403344D34003469340034C1
:1020920063340034723400346F34003463340034F7
:1020A200683400346934003470340034203400342D
:1020B20054340034653400346334003468340034FA
:1020C2006E3400346F3400346C3400346F340034B6
:1020D2006734003479340034203400344934003415
:1020E2006E340034633400342E3400342A34033422
:1020F2004334003444340034433400342034003454
:1021020052340034533400342D3400343234003429
:102112003334003432340034203400344534003453
:102122006D340034753400346C340034613400345E
:1021320074340034693400346F3400346E34003443
:1021420012340134003402340234003400340834CE
:10215200D83404340A3400340034013401340234F3
:042162000034013410
:102F7800F0002000111EC12FC22FBD2F2300DB013E
:102F8800DB0A70089A0008006400800101310130F2
:102F9800FE020030FF3B7F087E04031DC92F00346A
:102FA8008831012097319731E127973122000E109F
:102FB8008E1021000E148E1408007C302100990018
:102FC8009801903027009B002200960121001A1FCB
:102FD800EE2FEF2FEA2F08002000911EF42FF52F77
:102FE800F02F23009D1CF92FFA2FFC2F1D121D1600
:102FF800DC01DC0A1908080006349834433490349C
:10300800773490340434033409340434003490346D
:020000040001F9
:04000E00E40FCF3FED
:00000001FF
